:04080000B6EF7FF0E0
:10FEEE00000E00010001FC6F000E0001FD6F26D018
:10FEFE00000E00010001FE6F000E0001FF6FE80E04
:10FF0E0000010001FE5D030E0001FF59D8A001D0D3
:10FF1E0001D001D00FD000010001FE4BFF2BE80EE7
:10FF2E0000010001FE5D030E0001FF59D8A001D0B3
:10FF3E0001D0F1D700010001FC4BFD2B00010001A7
:10FF4E00FA5100010001FC5D00010001FB510001AE
:10FF5E000001FD59D8A001D001D0CAD71200000E61
:10FF6E00926E000E936E000E946E000E956E000E45
:10FF7E00966E0001F96F0F0EC16E0001F951000E61
:10FF8E0000010001F56F000E0001F66F000E00017A
:10FF9E00F76F000E0001F86F010E00010001F5254C
:10FFAE0000010001F56F000E00010001F6210001B5
:10FFBE00F66F000E00010001F7210001F76F000E31
:10FFCE0000010001F8210001F86FF5C083FFF6C0B3
:10FFDE0082FFF7C081FFF8C080FF010E0001000113
:10FFEE00FA6F000E0001FB6F77EC7FF0D5D700EFB4
:02FFFE0004F00D
:00000001FF
