:040800000CEF04F005
:10080800FACF3DF1FBCF3EF1E9CF3FF15DED11F0BD
:1008180000EE0AF0820EF66E100EF76E10EE04F07F
:1008280025EC04F000EE00F010EE0AF01EEC04F0E7
:1008380043EF08F0EE6AE550E150FCE1E250FAE1DE
:1008480012000900F5CFEEFFE550E150FAE1E25061
:04085800F8E11200B1
:10100000002057726F6E6720636F64652020202078
:101010002000000000002048656C6C6F202020201C
:101020002020202020200000000000205472792081
:10103000616761696E2020202020200000000000F0
:1010400020596179202020202020202020202020CD
:10105000000000000020556E6C6F636B696E6720A6
:101060002020202020000000000020202020202020
:10107000202020202020202020200000000000D25E
:10108000040001020408000E926E000E936EF80E2A
:10109000946E000E956E000E966E000E926E01011B
:1010A0000C6F0F0EC16E01010C51D59A01010C6F2E
:1010B000880ED56E01010C51D58EF28AF184F28C26
:1010C000CD9201010C6F810ECD6E01010C51CD80CE
:1010D0009D809F80F28CB19201010C6F810EB16EE8
:1010E00001010C51B180A082A282F28CF28ED6EC6A
:1010F00011F001010C6F000E010101011B6F0101D4
:101100000C5101010D6F000E010101011A6F010167
:101110000D511FEC12F0000E01010101086F000ECD
:101120000101096F140E01010101085D000E0101AA
:101130000959D8A001D001D001D020D0160E01014C
:1011400001010825F66EF76A100EF722F86A000E04
:10115000F82208000101F5CF2CF13FEC13F001015A
:101160000101084B092B140E01010101085D000E5D
:1011700001010959D8A001D001D0E0D7D00E01015A
:1011800001011E6F070E01011F6F61EC12F00101DA
:101190000C6F010E010101011C6F01010C51D3EC18
:1011A00012F0000E010101010A6F000E01010B6F28
:1011B000000E01010101066F000E0101076F000E14
:1011C00001010101026F000E0101036F000E010118
:1011D0000101006F000E0101016F01010C6F000E93
:1011E000010101011B6F01010C5101010D6F000E86
:1011F000010101011A6F01010D511FEC12F00101F3
:101200000C6F590E010101012C6F01010C513FECD3
:1012100013F001010C6F000E010101011B6F0101B0
:101220000C5101010D6F010E010101011A6F010145
:101230000D511FEC12F001010C6F580E010101015C
:101240002C6F01010C513FEC13F0FAEC12F001018C
:101250000C6F01010C5101010101046F0101056BCB
:10126000010101010551800A800F0A0ED8B4045D06
:10127000D8B001D001D01ED00A0E01010101106FBB
:10128000000E0101116F0AC10EF10BC10FF1A0ECAC
:1012900012F0010101010451010101010E250101BA
:1012A00001010A6F010101010551010101010F2135
:1012B00001010B6F0101010104510A0A0511D8A4B3
:1012C00001D001D019D002C100F103C101F106C162
:1012D00002F107C103F10AC106F10BC107F1000ECB
:1012E000010101010A6F000E01010B6F06C10EF131
:1012F00007C10FF103EC0AF00101010104510B0ACF
:101300000511D8A401D001D011D00A0E01010101AC
:10131000106F000E0101116F0AC10EF10BC10FF128
:10132000C5EC10F00EC10AF10FC10BF101010C6FF9
:10133000050E010101011B6F01010C5101010D6F2F
:10134000010E010101011A6F01010D511FEC12F094
:1013500001010C6F000E010101011F6F01010C5111
:1013600001010D6F050E010101011E6F01010D51FB
:10137000010101010AC11AF1010101010BC11BF1B7
:101380000101000E01011BBFFF0E01011C6F0101D5
:101390001D6F51EC0FF001010C6F050E01010101F1
:1013A0001B6F01010C5101010D6F000E01010101C4
:1013B0001A6F01010D511FEC12F001010C6F000EAC
:1013C000010101011F6F01010C5101010D6F050E9B
:1013D000010101011E6F01010D510101010106C151
:1013E0001AF10101010107C11BF10101000E010108
:1013F0001BBFFF0E01011C6F01011D6F51EC0FF0AF
:1014000024D70CEF04F0640E01010101106F000EEF
:101410000101116F7F0EF66E100EF76E000EF86E62
:101420000900F5CF14F10900F5CF15F101011551AF
:10143000010101010F1905E101011451010101012F
:101440000E19D8A401D001D0A0D00101146F000E54
:10145000010101011B6F010114510101156F000E03
:10146000010101011A6F010115511FEC12F0000E6C
:1014700001010101126F000E0101136F0101010151
:101480001351800A800F140ED8B4125DD8A001D079
:1014900001D001D021D0400E010101011225F66ECC
:1014A000F76A100EF722F86A000EF8220800010110
:1014B000F5CF2CF13FEC13F001010101124B132B7E
:1014C000010101011351800A800F140ED8B4125D7E
:1014D000D8A001D001D0DFD70101146F000E0101A7
:1014E00001011B6F010114510101156F010E010172
:1014F00001011A6F010115511FEC12F0000E0101DC
:101500000101126F000E0101136F0101010113515E
:10151000800A800F140ED8B4125DD8A001D001D07B
:1015200001D021D0550E010101011225F66EF76A96
:10153000100EF722F86A000EF82208000101F5CF1C
:101540002CF13FEC13F001010101124B132B0101AF
:1015500001011351800A800F140ED8B4125DD8A077
:1015600001D001D0DFD7B80E010101011E6F0B0EB3
:1015700001011F6F61EC12F0C9EC0DF010C116F102
:1015800011C117F115EC10F0A7D00101146F000E76
:10159000010101011B6F010114510101156F000EC2
:1015A000010101011A6F010115511FEC12F0000E2B
:1015B00001010101126F000E0101136F0101010110
:1015C0001351800A800F140ED8B4125DD8A001D038
:1015D00001D001D021D0010E010101011225F66ECA
:1015E000F76A100EF722F86A000EF82208000101CF
:1015F000F5CF2CF13FEC13F001010101124B132B3D
:10160000010101011351800A800F140ED8B4125D3C
:10161000D8A001D001D0DFD70101146F000E010165
:1016200001011B6F010114510101156F010E010130
:1016300001011A6F010115511FEC12F0000E01019A
:101640000101126F000E0101136F0101010113511D
:10165000800A800F140ED8B4125DD8A001D001D03A
:1016600001D021D02B0E010101011225F66EF76A7F
:10167000100EF722F86A000EF82208000101F5CFDB
:101680002CF13FEC13F001010101124B132B01016E
:1016900001011351800A800F140ED8B4125DD8A036
:1016A00001D001D0DFD7630E010101011A6F2C0EAA
:1016B00001011B6F410E01010101186F3B0E010179
:1016C000196FC70E01010101166F580E0101176F46
:1016D00020EC13F0C9EC0DF07F0EF66E100EF76ED5
:1016E000000EF86E0900F5CF14F10900F5CF15F1E1
:1016F00001011551010101010F1905E10101145109
:10170000010101010E19D8A401D001D014D0B80EE6
:10171000010101011E6F0B0E01011F6F61EC12F040
:10172000000E01010101166F000E0101176F15EC8B
:1017300010F0C9EC0DF000D01200F80E946E01010B
:1017400001011069040E826E000E01010101116F8A
:10175000000E0101126F010101011251800A800F78
:10176000640ED8B4115DD8A001D001D001D010D042
:1017700001010101114B122B010101011251800ADB
:10178000800F640ED8B4115DD8A001D001D0F0D77D
:1017900082AC01D001D008D00101136F010E01010C
:1017A0000101106F0101135182AA01D001D008D0AC
:1017B0000101136F040E01010101106F01011351AA
:1017C00082A801D001D008D00101136F070E0101DA
:1017D0000101106F0101135182A601D001D008D080
:1017E0000101136F0A0E01010101106F0101135174
:1017F000020E826E000E01010101116F000E010147
:10180000126F010101011251800A800F640ED8B4D9
:10181000115DD8A001D001D001D010D0010101018B
:10182000114B122B010101011251800A800F640E2D
:10183000D8B4115DD8A001D001D0F0D782AC01D0CE
:1018400001D008D00101136F020E01010101106FD8
:101850000101135182AA01D001D008D00101136FF8
:10186000050E01010101106F0101135182A801D081
:1018700001D008D00101136F080E01010101106FA2
:101880000101135182A601D001D008D00101136FCC
:10189000000E01010101106F01011351010E826E52
:1018A000000E01010101116F000E0101126F010113
:1018B00001011251800A800F640ED8B4115DD8A0C6
:1018C00001D001D001D010D001010101114B122B28
:1018D000010101011251800A800F640ED8B4115D1C
:1018E000D8A001D001D0F0D782AC01D001D008D06F
:1018F0000101136F030E01010101106F010113516A
:1019000082AA01D001D008D00101136F060E010197
:101910000101106F0101135182A801D001D008D03C
:101920000101136F090E01010101106F0101135133
:1019300082A601D001D008D00101136F0B0E010166
:101940000101106F0101135181A001D001D008D015
:101950000101136F0C0E01010101106F0101135100
:1019600081A201D001D008D00101136F0D0E010139
:101970000101106F0101135181A401D001D008D0E1
:101980000101136F0E0E01010101106F01011351CE
:1019900081A601D001D008D00101136F0F0E010103
:1019A0000101106F0101135181A801D001D008D0AD
:1019B0000101136F100E01010101106F010113519C
:1019C000000E826E01010101105100D012000101D0
:1019D0003A6F000E01010101356F01013A51010119
:1019E000010133AF01D001D018D001010101331F33
:1019F0000101321F0101311F0101306D000E010193
:101A00003123010132230101332301013A6F010E19
:101A100001010101356F01013A51010101012FAFAF
:101A200001D001D014D0010101012F1F01012E1F8F
:101A300001012D1F01012C6D000E01012D2301015B
:101A40002E2301012F23010E01010101351B000E80
:101A500001010101366F000E0101376F000E010117
:101A6000386F000E0101396F01013351301131110E
:101A70003211D8B401D001D06BD001013A6F010E00
:101A800001010101346F01013A510DD00101D890DB
:101A9000010130370101313701013237010133379C
:101AA00001010101342B0101010133AF01D001D04B
:101AB000EDD70101D8900101363701013737010117
:101AC00038370101393701010101305101010101AC
:101AD0002C5D010101013151010101012D5901016B
:101AE00001013251010101012E590101010133515E
:101AF000010101012F59D8A001D001D01BD0010153
:101B000001013051010101012C5F0101010131513D
:101B1000010101012D5B01010101325101010101AE
:101B20002E5B010101013351010101012F5B010114
:101B3000010136810101D8900101333301013233B3
:101B4000010131330101303301010101342FB1D7DB
:101B5000010101013551D8B401D001D010D00101EB
:101B60000101391F0101381F0101371F0101366DC5
:101B7000000E01013723010138230101392336C149
:101B80002CF137C12DF138C12EF139C12FF100D020
:101B900012000101186F000E010101011B6F01010C
:101BA00018510101196F000E010101011A6F0101A5
:101BB00019511FEC12F0000E01010101166F000E09
:101BC0000101176F140E01010101165D000E0101E4
:101BD0001759D8A001D001D001D020D06A0E010140
:101BE00001011625F66EF76A100EF722F86A000E4C
:101BF000F82208000101F5CF2CF13FEC13F00101B0
:101C00000101164B172B140E01010101165D000E88
:101C100001011759D8A001D001D0E0D70101186FF8
:101C2000000E010101011B6F010118510101196F23
:101C3000010E010101011A6F010119511FEC12F08F
:101C4000000E01010101166F000E0101176F140E45
:101C500001010101165D000E01011759D8A001D044
:101C600001D001D020D06A0E010101011625F66EC7
:101C7000F76A100EF722F86A000EF8220800010138
:101C8000F5CF2CF13FEC13F001010101164B172B9E
:101C9000140E01010101165D000E01011759D8A0B3
:101CA00001D001D0E0D70101186F000E0101010140
:101CB0001B6F010118510101196F000E0101010193
:101CC0001A6F010119511FEC12F00101186F590E22
:101CD000010101012C6F010118513FEC13F00101CA
:101CE000186F000E010101011B6F01011851010164
:101CF000196F010E010101011A6F010119511FEC49
:101D000012F00101186F580E010101012C6F010141
:101D100018513FEC13F000D012000101366F000E95
:101D200001010101346F01013651010101012FAFA1
:101D300001D001D018D0010101012F1F01012E1F78
:101D400001012D1F01012C6D000E01012D23010148
:101D50002E2301012F230101366F010E0101010124
:101D6000346F010136510101010133AF01D001D0BF
:101D700010D001010101331F0101321F0101311F88
:101D80000101306D000E01013123010132230101F7
:101D9000332301013351301131113211D8B401D044
:101DA00001D05ED00101366F010E01010101356FD6
:101DB000010136510DD00101D890010130370101E8
:101DC0003137010132370101333701010101352B70
:101DD0000101010133AF01D001D0EDD701010101B3
:101DE0003051010101012C5D01010101315101015D
:101DF00001012D59010101013251010101012E5949
:101E0000010101013351010101012F59D8A001D075
:101E100001D018D0010101013051010101012C5FF5
:101E2000010101013151010101012D5B010101019C
:101E30003251010101012E5B010101013351010108
:101E400001012F5B0101D8900101333301013233CD
:101E5000010131330101303301010101352FBED7BA
:101E6000010101013451D8B401D001D010D00101D9
:101E700001012F1F01012E1F01012D1F01012C6DDA
:101E8000000E01012D2301012E2301012F232CC15E
:101E90002CF12DC12DF12EC12EF12FC12FF100D02B
:101EA0001200010101011DAF01D001D01BD00101C1
:101EB0002B6F2D0E010101012C6F01012B513FEC05
:101EC00013F0010101011D1F01011C1F01011B1F56
:101ED00001011A6D000E01011B2301011C230101E8
:101EE0001D230AD001012B6F200E010101012C6F6F
:101EF00001012B513FEC13F001012B6F000E01018A
:101F00000101206F01012B51090E01010101206522
:101F100001D001D001D04ED00101210E01010101FB
:101F20002025E96EEA6A0101010EEA220A0E01018A
:101F30000101306F000E0101316F000E0101326F9F
:101F4000000E0101336F1AC12CF11BC12DF11CC110
:101F50002EF11DC12FF18DEC0EF0010101012C516C
:101F6000EF6E0A0E01010101306F000E0101316FA9
:101F7000000E0101326F000E0101336F1AC12CF106
:101F80001BC12DF11CC12EF11DC12FF1E7EC0CF08E
:101F90002CC11AF12DC11BF12EC11CF12FC11DF155
:101FA00001010101202B090E01010101206501D071
:101FB00001D0B2D71EC120F101010101206701D07B
:101FC00001D001D031D0010101011F5101010101F6
:101FD000206301D001D00AD001012B6F2E0E010128
:101FE00001012C6F01012B513FEC13F020C12BF1AB
:101FF000FF0E01012B270101210E01012B25E96EA6
:10200000EA6A0101010EEA22EF50300F01010101DD
:102010002C6F3FEC13F001010101200701010101C8
:10202000206701D001D0CFD7120001010101165164
:10203000025C0101010117510358D8B001D001D051
:1020400006D0010E0224026E000E0320036E025021
:1020500001010101165D0350010101011759D8B0BA
:1020600001D001D006D0FF0E0224026EFF0E032025
:10207000036E010101011751031804E1010101017F
:1020800016510218D8A401D001D001D07CD002C0D2
:1020900018F1030E010118170A0E01011825E96E47
:1020A000EA6A000EEA22EF50806E0101186F080EF6
:1020B000010101011B6F010118510101196F000E8F
:1020C000010101011A6F010119511FEC12F0010108
:1020D000186F000E010101011F6F0101185101016C
:1020E000196F050E010101011E6F01011951010156
:1020F000010116C11AF10101010117C11BF1010112
:10210000000E01011BBFFF0E01011C6F01011D6FBD
:1021100051EC0FF00101186F080E010101011B6F56
:10212000010118510101196F010E010101011A6F1E
:10213000010119511FEC12F00101186F000E01018D
:1021400001011F6F010118510101196F050E0101F5
:1021500001011E6F01011951010102C01AF10101B3
:1021600003C01BF1010101011C6B01011D6B51EC4E
:102170000FF01E0E010101011E6F000E01011F6F05
:1021800061EC12F052D700D012000101166F000E60
:1021900001010101136F010116510101010111AF8C
:1021A00001D001D00FD001010101106D0101111FFB
:1021B000D8B0112B0101166F010E01010101136F3F
:1021C00001011651010101010FAF01D001D00BD067
:1021D000010101010E6D01010F1FD8B00F2B010E7F
:1021E00001010101131B000E01010101146F000E1A
:1021F0000101156F0101010111511011D8B401D075
:1022000001D047D00101166F010E01010101126FCB
:102210000101165109D00101D890010110370101C7
:10222000113701010101122B0101010111AF01D090
:1022300001D0F1D70101D890010114370101153700
:10224000010101011051010101010E5D01010101B6
:102250001151010101010F59D8A001D001D00FD0B7
:10226000010101011051010101010E5F0101010194
:102270001151010101010F5B0101010114810101F3
:10228000D890010111330101103301010101122F16
:10229000D1D7010101011351D8B401D001D007D029
:1022A00001010101146D0101151FD8B0152B14C1D6
:1022B0000EF115C10FF100D012000600EACF40F177
:1022C000E1CF41F1E2CF42F1D9CF43F1DACF44F18E
:1022D000F3CF45F1F4CF46F1F6CF47F1F7CF48F110
:1022E000F8CF49F1F2A401D001D015D006C03BF1DE
:1022F00007C03CF101013B1F3C1F3B4B3C2B3BC14A
:10230000D6FF3CC1D7FF01500010D8B401D001D096
:1023100001D08170F2949EA001D001D014D008C0E9
:102320003BF109C03CF101013B1F3C1F3B4B3C2BE7
:102330003BC1CEFF3CC1CFFF8150D8B401D001D00A
:1023400001D081729E90A1A201D001D014D004C00E
:102350003BF105C03CF101013B1F3C1F3B4B3C2BBB
:102360003BC1B2FF3CC1B3FF8150D8B401D001D012
:1023700001D08174A19249C1F8FF48C1F7FF47C15C
:10238000F6FF46C1F4FF45C1F3FF44C1DAFF43C184
:10239000D9FF42C1E2FF41C1E1FF40C1EAFF3FC1B5
:1023A000E9FF3EC1FBFF3DC1FAFF1100000E956E33
:1023B000839201010E6F330E010101011C6F0101B7
:1023C0000E51D3EC12F001010E6F320E010101012A
:1023D0001C6F01010E51D3EC12F001010E6F280E9B
:1023E000010101011C6F01010E51D3EC12F001013A
:1023F0000E6F0E0E010101011C6F01010E51D3EC95
:1024000012F001010E6F010E010101011C6F0101AB
:102410000E51D3EC12F001010E6F060E0101010105
:102420001C6F01010E51D3EC12F0640E0101010189
:102430001E6F000E01011F6F61EC12F0120001010E
:1024400001011A6701D001D009D0010101011B511E
:10245000800F010101011C6FD3EC12F00101010199
:102460001A05D8A401D001D009D0010101011B51E6
:10247000C00F010101011C6FD3EC12F00101010139
:102480001A51020AD8A401D001D009D001010101DA
:102490001B51940F010101011C6FD3EC12F00101DB
:1024A00001011A51030AD8A401D001D009D00101B9
:1024B00001011B51D40F010101011C6FD3EC12F07B
:1024C0001200000E01010101206F000E0101216FB9
:1024D00026D0000E01010101226F000E0101236FC1
:1024E000690E01010101225D020E01012359D8A0EC
:1024F00001D001D001D00FD001010101224B232BCB
:10250000690E01010101225D020E01012359D8A0CB
:1025100001D001D0F1D701010101204B212B010194
:1025200001011E5101010101205D010101011F5145
:10253000010101012159D8A001D001D0CAD7120050
:10254000000E01010101126F000E0101136F010164
:1025500001010EA101D001D00CD0010101011051E7
:1025600001010101122701010101115101010101C4
:1025700013230101D8900101103701011137010126
:10258000D89001010F3301010E33010101010F51F8
:102590000E11D8A401D001D0DAD712C10EF113C1A7
:1025A0000FF100D0120083941CC11DF1F00E010147
:1025B0001D1783500F0B01011D11836E78EC13F072
:1025C0001CC11DF101011D3BF00E1D17F00E010194
:1025D0001D1783500F0B01011D11836E78EC13F052
:1025E0000A0E010101011E6F000E01011F6F61EC57
:1025F00012F012009DEC0BF0010101010F6F150E9E
:10260000010101010F6101D001D0F4D79DEC0BF065
:10261000010101010E6F130E010101010E6501D0D0
:1026200001D0F4D7640E010101011E6F000E0101FB
:102630001F6F61EC12F0010101010F5100D0120077
:10264000010E006E000E016E16C106F017C107F0F4
:1026500018C108F019C109F01AC104F01BC105F036
:10266000D00E010101011E6F070E01011F6F61EC09
:1026700012F0000E006E000E016E00D01200838476
:102680002CC12DF1F00E01012D1783500F0B01010C
:102690002D11836E78EC13F02CC12DF101012D3B2F
:1026A000F00E2D17F00E01012D1783500F0B0101B5
:1026B0002D11836E78EC13F0120001012F6F000EC4
:1026C000010101012E6F01012F51130E01010101C2
:1026D0002E6501D001D001D00AD0010101012E2BBD
:1026E000130E010101012E6501D001D0F6D71200B1
:1026F00083965DEC13F083865DEC13F083965DECBE
:0427000013F01200C0
:00000001FF
