:040800000CEF04F005
:10080800FACF3BF1FBCF3CF1E9CF3DF167ED11F0B9
:1008180000EE0EF06E0EF66E100EF76E10EE04F08F
:1008280025EC04F000EE00F010EE0EF01EEC04F0E3
:10083800C5EF09F0EE6AE550E150FCE1E250FAE15B
:1008480012000900F5CFEEFFE550E150FAE1E25061
:04085800F8E11200B1
:10100000002020202057726F6E6720636F64652078
:101010002020202020002020574F4D5020574F4D9A
:101020005020574F4D5020202020002020202020ED
:1010300020205961792020202020202020202000FD
:1010400020202020556E6C6F636B696E6720202016
:1010500020202020002020202020202020202020B0
:1010600020202020202020202000D2040000010287
:101070000408640E010101010E6F000E01010F6FE3
:101080006A0EF66E100EF76E000EF86E0900F5CFC0
:1010900012F10900F5CF13F1010113510101010112
:1010A0000D1905E101011251010101010C19D8A42A
:1010B00001D001D0A0D00101126F000E0101010189
:1010C000196F010112510101136F000E010101019D
:1010D000186F010113512BEC12F0000E01010101F8
:1010E000106F000E0101116F010101011151800A01
:1010F000800F140ED8B4105DD8A001D001D001D05B
:1011000021D02B0E010101011025F66EF76A100E99
:10111000F722F86A000EF82208000101F5CF2AF143
:101120002CEC13F001010101104B112B0101010105
:101130001151800A800F140ED8B4105DD8A001D0D0
:1011400001D0DFD70101126F000E01010101196FFB
:10115000010112510101136F010E01010101186F0C
:10116000010113512BEC12F0000E01010101106F6F
:10117000000E0101116F010101011151800A800F60
:10118000140ED8B4105DD8A001D001D001D021D068
:10119000400E010101011025F66EF76A100EF722CC
:1011A000F86A000EF82208000101F5CF2AF12CECB4
:1011B00013F001010101104B112B0101010111512B
:1011C000800A800F140ED8B4105DD8A001D001D0D1
:1011D000DFD7010E01010101146F000E0101156F2F
:1011E000ECEC10F01CEC0EF00EC114F10FC115F177
:1011F000A4EC0FF099D00101126F000E0101010162
:10120000196F010112510101136F000E010101015B
:10121000186F010113512BEC12F0000E01010101B6
:10122000106F000E0101116F010101011151800ABF
:10123000800F140ED8B4105DD8A001D001D001D019
:1012400021D0010E010101011025F66EF76A100E82
:10125000F722F86A000EF82208000101F5CF2AF102
:101260002CEC13F001010101104B112B01010101C4
:101270001151800A800F140ED8B4105DD8A001D08F
:1012800001D0DFD70101126F000E01010101196FBA
:10129000010112510101136F010E01010101186FCB
:1012A000010113512BEC12F0000E01010101106F2E
:1012B000000E0101116F010101011151800A800F1F
:1012C000140ED8B4105DD8A001D001D001D021D027
:1012D000160E010101011025F66EF76A100EF722B5
:1012E000F86A000EF82208000101F5CF2AF12CEC73
:1012F00013F001010101104B112B010101011151EA
:10130000800A800F140ED8B4105DD8A001D001D08F
:10131000DFD7000E01010101146F000E0101156FEE
:10132000ECEC10F01CEC0EF06A0EF66E100EF76E80
:10133000000EF86E0900F5CF12F10900F5CF13F198
:1013400001011351010101010D1905E101011251C2
:10135000010101010C19D8A401D001D014D0880ECC
:10136000010101011C6F130E01011D6F6DEC12F0E4
:10137000000E01010101146F000E0101156FA4ECB4
:101380000FF01CEC0EF000D01200000E926E93686D
:10139000F80E946E000E956E000E966E000E926E14
:1013A00001010A6F0F0EC16E01010A51D59A0101A8
:1013B0000A6F880ED56E01010A51D58EF28AF1842A
:1013C000F28CCD9201010A6F810ECD6E01010A519E
:1013D000CD809D809F80F28CB19201010A6F810EB9
:1013E000B16E01010A51B180A082A282F28CF28E0C
:1013F000E2EC11F0000E01010101086F000E010185
:10140000096F000E01010101066F000E0101076F57
:10141000000E01010101026F000E0101036F000EB9
:1014200001010101006F000E0101016F01010A6F4E
:10143000000E01010101196F01010A5101010B6F39
:10144000000E01010101186F01010B512BEC12F08C
:1014500001010A6F590E010101012A6F01010A51B0
:101460002CEC13F001010A6F000E01010101196F4C
:1014700001010A5101010B6F010E01010101186FF9
:1014800001010B512BEC12F001010A6F580E010102
:1014900001012A6F01010A512CEC13F006EC13F044
:1014A00001010A6F01010A5101010101046F0101EB
:1014B000056B010101010551800A800F0A0ED8B4A5
:1014C000045DD8B001D001D01ED00A0E0101010187
:1014D0000E6F000E01010F6F08C10CF109C10DF173
:1014E000ACEC12F0010101010451010101010C25D4
:1014F00001010101086F0101010105510101010113
:101500000D210101096F0101010104510A0A0511B0
:10151000D8A401D001D019D002C100F103C101F15A
:1015200006C102F107C103F108C106F109C107F1C3
:10153000000E01010101086F000E0101096F06C1D3
:101540000CF107C10DF139EC08F001010101045162
:101550000B0A0511D8A401D001D011D00A0E010147
:1015600001010E6F000E01010F6F08C10CF109C1DE
:101570000DF154EC10F00CC108F10DC109F101019D
:101580000A6F050E01010101196F01010A510101E4
:101590000B6F010E01010101186F01010B512BECC2
:1015A00012F001010A6F000E010101011D6F01011E
:1015B0000A5101010B6F050E010101011C6F0101B0
:1015C0000B510101010108C118F10101010109C11B
:1015D00019F10101000E010119BFFF0E01011A6F7F
:1015E00001011B6FE0EC0EF001010A6F050E010115
:1015F0000101196F01010A5101010B6F000E010178
:101600000101186F01010B512BEC12F001010A6F5F
:10161000000E010101011D6F01010A5101010B6F53
:10162000050E010101011C6F01010B5101010101B6
:1016300006C118F10101010107C119F10101000EF4
:10164000010119BFFF0E01011A6F01011B6FE0ECD0
:101650000EF024D70CEF04F0F80E946E0101010196
:101660000E69040E826E000E010101010F6F000E63
:101670000101106F010101011051800A800F640EF9
:10168000D8B40F5DD8A001D001D001D010D0010195
:1016900001010F4B102B010101011051800A800F35
:1016A000640ED8B40F5DD8A001D001D0F0D782ACC1
:1016B00001D001D008D00101116F010E010101011B
:1016C0000E6F0101115182AA01D001D008D0010191
:1016D000116F040E010101010E6F0101115182A869
:1016E00001D001D008D00101116F070E01010101E5
:1016F0000E6F0101115182A601D001D008D0010165
:10170000116F0A0E010101010E6F01011151020E4C
:10171000826E000E010101010F6F000E0101106FBA
:10172000010101011051800A800F640ED8B40F5DD1
:10173000D8A001D001D001D010D0010101010F4B80
:10174000102B010101011051800A800F640ED8B4E2
:101750000F5DD8A001D001D0F0D782AC01D001D06C
:1017600008D00101116F020E010101010E6F01018C
:10177000115182AA01D001D008D00101116F050ECC
:10178000010101010E6F0101115182A801D001D0A8
:1017900008D00101116F080E010101010E6F010156
:1017A000115182A601D001D008D00101116F000EA5
:1017B000010101010E6F01011151010E826E000E37
:1017C000010101010F6F000E0101106F0101010104
:1017D0001051800A800F640ED8B40F5DD8A001D0DC
:1017E00001D001D010D0010101010F4B102B0101DC
:1017F00001011051800A800F640ED8B40F5DD8A08B
:1018000001D001D0F0D782AC01D001D008D00101C5
:10181000116F030E010101010E6F0101115182AA26
:1018200001D001D008D00101116F060E01010101A4
:101830000E6F0101115182A801D001D008D0010121
:10184000116F090E010101010E6F0101115182A6F4
:1018500001D001D008D00101116F0B0E010101016F
:101860000E6F0101115181A001D001D008D00101FA
:10187000116F0C0E010101010E6F0101115181A2C6
:1018800001D001D008D00101116F0D0E010101013D
:101890000E6F0101115181A401D001D008D00101C6
:1018A000116F0E0E010101010E6F0101115181A690
:1018B00001D001D008D00101116F0F0E010101010B
:1018C0000E6F0101115181A801D001D008D0010192
:1018D000116F100E010101010E6F01011151000E77
:1018E000826E010101010E5100D012000101386F1A
:1018F000000E01010101336F0101385101010101A5
:1019000031AF01D001D018D001010101311F010117
:10191000301F01012F1F01012E6D000E01012F2329
:1019200001013023010131230101386F010E010152
:101930000101336F01013851010101012DAF01D0C7
:1019400001D014D0010101012D1F01012C1F010143
:101950002B1F01012A6D000E01012B2301012C23F5
:1019600001012D23010E01010101331B000E0101B4
:101970000101346F000E0101356F000E0101366F59
:10198000000E0101376F010131512E112F1130115D
:10199000D8B401D001D06BD00101386F010E010124
:1019A0000101326F010138510DD00101D8900101C0
:1019B0002E3701012F370101303701013137010185
:1019C0000101322B0101010131AF01D001D0EDD76E
:1019D0000101D89001013437010135370101363753
:1019E00001013737010101012E51010101012A5D79
:1019F000010101012F51010101012B5901010101D7
:101A00003051010101012C59010101013151010144
:101A100001012D59D8A001D001D01BD00101010135
:101A20002E51010101012A5F010101012F51010124
:101A300001012B5B010101013051010101012C5B0E
:101A4000010101013151010101012D5B0101010180
:101A500034810101D890010131330101303301019A
:101A60002F3301012E3301010101322FB1D70101C2
:101A700001013351D8B401D001D010D001010101CE
:101A8000371F0101361F0101351F0101346D000EA2
:101A900001013523010136230101372334C12AF125
:101AA00035C12BF136C12CF137C12DF100D0120018
:101AB0000101346F000E01010101326F0101345147
:101AC000010101012DAF01D001D018D001010101A8
:101AD0002D1F01012C1F01012B1F01012A6D000E7A
:101AE00001012B2301012C2301012D230101346F5E
:101AF000010E01010101326F0101345101010101A7
:101B000031AF01D001D010D001010101311F01011D
:101B1000301F01012F1F01012E6D000E01012F2327
:101B20000101302301013123010131512E112F1107
:101B30003011D8B401D001D05ED00101346F010E54
:101B400001010101336F010134510DD00101D89021
:101B500001012E3701012F370101303701013137E3
:101B600001010101332B0101010131AF01D001D08D
:101B7000EDD7010101012E51010101012A5D010191
:101B800001012F51010101012B59010101013051C6
:101B9000010101012C590101010131510101010132
:101BA0002D59D8A001D001D018D0010101012E512A
:101BB000010101012A5F010101012F510101010110
:101BC0002B5B010101013051010101012C5B01017D
:101BD00001013151010101012D5B0101D890010189
:101BE00031330101303301012F3301012E33010163
:101BF0000101332FBED7010101013251D8B401D008
:101C000001D010D0010101012D1F01012C1F010184
:101C10002B1F01012A6D000E01012B2301012C2332
:101C200001012D232AC12AF12BC12BF12CC12CF14A
:101C30002DC12DF100D012000101166F000E01011F
:101C40000101196F010116510101176F000E010109
:101C50000101186F010117512BEC12F0000E010168
:101C60000101146F000E0101156F140E0101010135
:101C7000145D000E01011559D8A001D001D001D08A
:101C800020D0550E010101011425F66EF76A100EE1
:101C9000F722F86A000EF82208000101F5CF2AF1B8
:101CA0002CEC13F001010101144B152B140E010152
:101CB0000101145D000E01011559D8A001D001D019
:101CC000E0D70101166F000E01010101196F01013A
:101CD00016510101176F010E01010101186F010179
:101CE00017512BEC12F0000E01010101146F000ED0
:101CF0000101156F140E01010101145D000E0101B7
:101D00001559D8A001D001D001D020D0550E010125
:101D100001011425F66EF76A100EF722F86A000E1C
:101D2000F82208000101F5CF2AF12CEC13F0010193
:101D30000101144B152B140E01010101145D000E5D
:101D400001011559D8A001D001D0E0D70101166FCB
:101D5000000E01010101196F010116510101176FF8
:101D6000000E01010101186F010117512BEC12F057
:101D70000101166F590E010101012A6F010116516F
:101D80002CEC13F00101166F000E01010101196F17
:101D9000010116510101176F010E01010101186FB8
:101DA000010117512BEC12F00101166F580E0101C1
:101DB00001012A6F010116512CEC13F000D0120022
:101DC000010101011BAF01D001D01BD00101296F1E
:101DD0002D0E010101012A6F010129512CEC13F094
:101DE000010101011B1F01011A1F0101191F01013E
:101DF000186D000E0101192301011A2301011B2393
:101E00000AD00101296F200E010101012A6F010191
:101E100029512CEC13F00101296F000E0101010181
:101E20001E6F01012951090E010101011E6501D03A
:101E300001D001D04ED001011F0E010101011E256C
:101E4000E96EEA6A0101010EEA220A0E01010101AE
:101E50002E6F000E01012F6F000E0101306F000E7A
:101E60000101316F18C12AF119C12BF11AC12CF1EE
:101E70001BC12DF158EC0DF0010101012A51EF6E4B
:101E80000A0E010101012E6F000E01012F6F000EDD
:101E90000101306F000E0101316F18C12AF119C123
:101EA0002BF11AC12CF11BC12DF176EC0CF02AC1DB
:101EB00018F12BC119F12CC11AF12DC11BF101012F
:101EC00001011E2B090E010101011E6501D001D087
:101ED000B2D71CC11EF1010101011E6701D001D062
:101EE00001D031D0010101011D51010101011E6329
:101EF00001D001D00AD00101296F2E0E010101018C
:101F00002A6F010129512CEC13F01EC129F1FF0E9B
:101F10000101292701011F0E01012925E96EEA6A45
:101F20000101010EEA22EF50300F010101012A6F79
:101F30002CEC13F0010101011E07010101011E67D4
:101F400001D001D0CFD71200010101011451045C6E
:101F50000101010115510558D8B001D001D006D0BA
:101F6000010E0424046E000E0520056E04500101CC
:101F70000101145D0550010101011559D8B001D0CE
:101F800001D006D0FF0E0424046EFF0E0520056E5E
:101F9000010101011551051804E10101010114516C
:101FA0000418D8A401D001D001D07CD004C016F10F
:101FB000030E010116170E0E01011625E96EEA6ADD
:101FC000000EEA22EF50806E0101166F080E01012B
:101FD0000101196F010116510101176F000E010176
:101FE0000101186F010117512BEC12F00101166F5E
:101FF000000E010101011D6F010116510101176F52
:10200000050E010101011C6F0101175101010101C0
:1020100014C118F10101010115C119F10101000EEE
:10202000010119BFFF0E01011A6F01011B6FE0ECE6
:102030000EF00101166F080E01010101196F010177
:1020400016510101176F010E01010101186F010105
:1020500017512BEC12F00101166F000E0101010166
:102060001D6F010116510101176F050E01010101DC
:102070001C6F01011751010104C018F1010105C0D5
:1020800019F1010101011A6B01011B6BE0EC0EF06B
:102090001E0E010101011C6F000E01011D6F6DEC90
:1020A00012F052D700D012000101146F000E01018E
:1020B0000101116F01011451010101010FAF01D0A4
:1020C00001D00FD0010101010E6D01010F1FD8B029
:1020D0000F2B0101146F010E01010101116F0101AC
:1020E0001451010101010DAF01D001D00BD001014C
:1020F00001010C6D01010D1FD8B00D2B010E010166
:102100000101111B000E01010101126F000E0101FE
:10211000136F010101010F510E11D8B401D001D08C
:1021200047D00101146F010E01010101106F01017F
:10213000145109D00101D89001010E3701010F3768
:1021400001010101102B010101010FAF01D001D0EC
:10215000F1D70101D89001011237010113370101B4
:1021600001010E51010101010C5D010101010F513D
:10217000010101010D59D8A001D001D00FD00101FA
:1021800001010E51010101010C5F010101010F511B
:10219000010101010D5B0101010112810101D890D2
:1021A00001010F3301010E3301010101102FD1D7BD
:1021B000010101011151D8B401D001D007D00101B2
:1021C0000101126D0101131FD8B0132B12C10CF1C4
:1021D00013C10DF100D01200010101011405151108
:1021E000D8A401D001D02AD04E0E086E950E096EEB
:1021F0008E0E0A6EB10E0B6E010E066E000E076E8D
:10220000200E010101011C6F030E01011D6F6DEC19
:1022100012F0000E066E000E076E010E006E000E2C
:10222000016E200E010101011C6F030E01011D6FE3
:102230006DEC12F0000E006E000E016E0101010146
:1022400015511411D8A401D001D03FD0E60E086E6C
:10225000290E096E630E0A6E2C0E0B6E830E0C6E29
:10226000170E0D6E010E066E000E076E200E010198
:1022700001011C6F030E01011D6F6DEC12F0000EC9
:10228000066E000E076E010E006E000E016E200E2F
:10229000010101011C6F030E01011D6F6DEC12F0B5
:1022A000000E006E000E016E010E026E000E036E37
:1022B000DC0E010101011C6F050E01011D6F6DECAB
:1022C00012F0000E026E000E036E00D01200060027
:1022D000EACF3EF1E1CF3FF1E2CF40F1D9CF41F17A
:1022E000DACF42F1F3CF43F1F4CF44F1F6CF45F129
:1022F000F7CF46F1F8CF47F1F2A401D001D015D0C5
:1023000008C039F109C03AF10101391F3A1F394BB0
:102310003A2B39C1D6FF3AC1D7FF07500610D8B4BF
:1023200001D001D001D08370F2949EA001D001D0E1
:1023300015D00AC039F10BC03AF10101391F3A1F1B
:10234000394B3A2B39C1CEFF3AC1CFFF01500010B3
:10235000D8B401D001D001D083709E90A1A201D049
:1023600001D015D00CC039F10DC03AF10101391F6F
:102370003A1F394B3A2B39C1B2FF3AC1B3FF035070
:102380000210D8B401D001D001D08370A19247C10E
:10239000F8FF46C1F7FF45C1F6FF44C1F4FF43C152
:1023A000F3FF42C1DAFF41C1D9FF40C1E2FF3FC1A3
:1023B000E1FF3EC1EAFF3DC1E9FF3CC1FBFF3BC17C
:1023C000FAFF1100000E956E839201010C6F330E1F
:1023D000010101011A6F01010C51DFEC12F0010142
:1023E0000C6F320E010101011A6F01010C51DFEC7B
:1023F00012F001010C6F280E010101011A6F010199
:102400000C51DFEC12F001010C6F0E0E0101010105
:102410001A6F01010C51DFEC12F001010C6F010E7B
:10242000010101011A6F01010C51DFEC12F00101F1
:102430000C6F060E010101011A6F01010C51DFEC56
:1024400012F0640E010101011C6F000E01011D6FED
:102450006DEC12F0120001010101186701D001D0EA
:1024600009D0010101011951800F010101011A6F09
:10247000DFEC12F0010101011805D8A401D001D050
:1024800009D0010101011951C00F010101011A6FA9
:10249000DFEC12F0010101011851020AD8A401D0A9
:1024A00001D009D0010101011951940F010101016D
:1024B0001A6FDFEC12F0010101011851030AD8A4D0
:1024C00001D001D009D0010101011951D40F01013E
:1024D00001011A6FDFEC12F01200000E0101010180
:1024E0001E6F000E01011F6F26D0000E01010101B9
:1024F000206F000E0101216F690E01010101205DB5
:10250000020E01012159D8A001D001D001D00FD075
:1025100001010101204B212B690E01010101205D08
:10252000020E01012159D8A001D001D0F1D701013B
:1025300001011E4B1F2B010101011C510101010171
:102540001E5D010101011D51010101011F59D8A0AA
:1025500001D001D0CAD71200000E01010101106F95
:10256000000E0101116F010101010CA101D001D088
:102570000CD0010101010E510101010110270101DF
:1025800001010F510101010111230101D890010145
:102590000E3701010F370101D89001010D33010100
:1025A0000C33010101010D510C11D8A401D001D04F
:1025B000DAD710C10CF111C10DF100D012008394D3
:1025C0001AC11BF1F00E01011B1783500F0B010103
:1025D0001B11836E65EC13F01AC11BF101011B3B4B
:1025E000F00E1B17F00E01011B1783500F0B01019A
:1025F0001B11836E65EC13F00A0E010101011C6FC3
:10260000000E01011D6F6DEC12F012002CEC0BF0AE
:10261000010101010D6F150E010101010D6101D0D4
:1026200001D0F4D72CEC0BF0010101010C6F130E5B
:10263000010101010C6501D001D0F4D7640E010144
:1026400001011C6F000E01011D6F6DEC12F0010104
:1026500001010D5100D0120083842AC12BF1F00E2C
:1026600001012B1783500F0B01012B11836E65ECB9
:1026700013F02AC12BF101012B3BF00E2B17F00EAA
:1026800001012B1783500F0B01012B11836E65EC99
:1026900013F0120001012D6F000E010101012C6FDA
:1026A00001012D51130E010101012C6501D001D052
:1026B00001D00AD0010101012C2B130E01010101EF
:1026C0002C6501D001D0F6D7120083964AEC13F0A6
:0E26D00083864AEC13F083964AEC13F0120056
:00000001FF
